{
  "contractName": "Prada",
  "abi": [
    {
      "constant": false,
      "inputs": [
        {
          "name": "_addr",
          "type": "address"
        }
      ],
      "name": "changeOwner",
      "outputs": [],
      "payable": false,
      "stateMutability": "nonpayable",
      "type": "function"
    },
    {
      "constant": true,
      "inputs": [],
      "name": "owners",
      "outputs": [
        {
          "name": "",
          "type": "address"
        }
      ],
      "payable": false,
      "stateMutability": "view",
      "type": "function"
    },
    {
      "inputs": [],
      "payable": false,
      "stateMutability": "nonpayable",
      "type": "constructor"
    },
    {
      "anonymous": false,
      "inputs": [
        {
          "indexed": false,
          "name": "id",
          "type": "uint256"
        },
        {
          "indexed": false,
          "name": "name",
          "type": "string"
        }
      ],
      "name": "productAdded",
      "type": "event"
    },
    {
      "anonymous": false,
      "inputs": [
        {
          "indexed": false,
          "name": "id",
          "type": "uint256"
        },
        {
          "indexed": false,
          "name": "name",
          "type": "string"
        }
      ],
      "name": "supplierAdded",
      "type": "event"
    },
    {
      "anonymous": false,
      "inputs": [
        {
          "indexed": false,
          "name": "orderId",
          "type": "uint256"
        },
        {
          "indexed": false,
          "name": "qty",
          "type": "uint256"
        },
        {
          "indexed": false,
          "name": "productId",
          "type": "uint256"
        }
      ],
      "name": "orderPlaced",
      "type": "event"
    },
    {
      "anonymous": false,
      "inputs": [
        {
          "indexed": false,
          "name": "productId",
          "type": "uint256"
        },
        {
          "indexed": false,
          "name": "qty",
          "type": "uint256"
        },
        {
          "indexed": false,
          "name": "status",
          "type": "string"
        }
      ],
      "name": "QCStatus",
      "type": "event"
    },
    {
      "constant": false,
      "inputs": [
        {
          "name": "_id",
          "type": "uint256"
        },
        {
          "name": "_quantity",
          "type": "uint256"
        },
        {
          "name": "_productID",
          "type": "uint256"
        },
        {
          "name": "_deliveryTime",
          "type": "uint256"
        }
      ],
      "name": "placeOrderToSuplier",
      "outputs": [
        {
          "name": "supplier",
          "type": "uint256"
        }
      ],
      "payable": false,
      "stateMutability": "nonpayable",
      "type": "function"
    },
    {
      "constant": false,
      "inputs": [
        {
          "name": "_productId",
          "type": "uint256"
        },
        {
          "name": "_qty",
          "type": "uint256"
        },
        {
          "name": "_dobmanf",
          "type": "uint256"
        }
      ],
      "name": "checkForQC",
      "outputs": [
        {
          "name": "status",
          "type": "string"
        }
      ],
      "payable": false,
      "stateMutability": "nonpayable",
      "type": "function"
    },
    {
      "constant": false,
      "inputs": [
        {
          "name": "_id",
          "type": "uint256"
        },
        {
          "name": "_name",
          "type": "string"
        },
        {
          "name": "_loc",
          "type": "string"
        },
        {
          "name": "_rank",
          "type": "uint256"
        },
        {
          "name": "_productId",
          "type": "uint256"
        }
      ],
      "name": "addSupplier",
      "outputs": [],
      "payable": false,
      "stateMutability": "nonpayable",
      "type": "function"
    },
    {
      "constant": true,
      "inputs": [],
      "name": "totalSupplierCount",
      "outputs": [
        {
          "name": "",
          "type": "uint256"
        }
      ],
      "payable": false,
      "stateMutability": "view",
      "type": "function"
    },
    {
      "constant": true,
      "inputs": [
        {
          "name": "_id",
          "type": "uint256"
        }
      ],
      "name": "getSupplier",
      "outputs": [
        {
          "name": "",
          "type": "uint256"
        },
        {
          "name": "",
          "type": "string"
        },
        {
          "name": "",
          "type": "string"
        },
        {
          "name": "",
          "type": "uint256"
        },
        {
          "name": "",
          "type": "uint256"
        }
      ],
      "payable": false,
      "stateMutability": "view",
      "type": "function"
    },
    {
      "constant": false,
      "inputs": [
        {
          "name": "_id",
          "type": "uint256"
        },
        {
          "name": "_name",
          "type": "string"
        },
        {
          "name": "_qty",
          "type": "uint256"
        }
      ],
      "name": "addProduct",
      "outputs": [],
      "payable": false,
      "stateMutability": "nonpayable",
      "type": "function"
    },
    {
      "constant": true,
      "inputs": [],
      "name": "totalProductCount",
      "outputs": [
        {
          "name": "",
          "type": "uint256"
        }
      ],
      "payable": false,
      "stateMutability": "view",
      "type": "function"
    },
    {
      "constant": true,
      "inputs": [
        {
          "name": "index",
          "type": "uint256"
        }
      ],
      "name": "getProduct",
      "outputs": [
        {
          "name": "",
          "type": "uint256"
        },
        {
          "name": "",
          "type": "string"
        },
        {
          "name": "",
          "type": "uint256"
        },
        {
          "name": "",
          "type": "uint256"
        }
      ],
      "payable": false,
      "stateMutability": "view",
      "type": "function"
    }
  ],
  "bytecode": "0x6080604052600460008081526020019081526020016000206001015460095534801561002a57600080fd5b50336000806101000a81548173ffffffffffffffffffffffffffffffffffffffff021916908373ffffffffffffffffffffffffffffffffffffffff16021790555061146b8061007a6000396000f3fe608060405234801561001057600080fd5b506004361061009e5760003560e01c8063a6f9dae111610066578063a6f9dae11461041b578063affe39c11461045f578063b9d228ac146104a9578063b9db15b4146104c7578063e0620e1d146105835761009e565b80630722f59f146100a35780631f6d6ffa1461015e5780634268ff2d146102ce578063486c5de31461039d5780637f08bb96146103bb575b600080fd5b6100e3600480360360608110156100b957600080fd5b810190808035906020019092919080359060200190929190803590602001909291905050506106ab565b6040518080602001828103825283818151815260200191508051906020019080838360005b83811015610123578082015181840152602081019050610108565b50505050905090810190601f1680156101505780820380516001836020036101000a031916815260200191505b509250505060405180910390f35b6102cc600480360360a081101561017457600080fd5b81019080803590602001909291908035906020019064010000000081111561019b57600080fd5b8201836020820111156101ad57600080fd5b803590602001918460018302840111640100000000831117156101cf57600080fd5b91908080601f016020809104026020016040519081016040528093929190818152602001838380828437600081840152601f19601f8201169050808301925050505050505091929192908035906020019064010000000081111561023257600080fd5b82018360208201111561024457600080fd5b8035906020019184600183028401116401000000008311171561026657600080fd5b91908080601f016020809104026020016040519081016040528093929190818152602001838380828437600081840152601f19601f820116905080830192505050505050509192919290803590602001909291908035906020019092919050505061089a565b005b61039b600480360360608110156102e457600080fd5b81019080803590602001909291908035906020019064010000000081111561030b57600080fd5b82018360208201111561031d57600080fd5b8035906020019184600183028401116401000000008311171561033f57600080fd5b91908080601f016020809104026020016040519081016040528093929190818152602001838380828437600081840152601f19601f82011690508083019250505050505050919291929080359060200190929190505050610a78565b005b6103a5610c0a565b6040518082815260200191505060405180910390f35b610405600480360360808110156103d157600080fd5b8101908080359060200190929190803590602001909291908035906020019092919080359060200190929190505050610c6d565b6040518082815260200191505060405180910390f35b61045d6004803603602081101561043157600080fd5b81019080803573ffffffffffffffffffffffffffffffffffffffff169060200190929190505050610ef3565b005b610467610f8f565b604051808273ffffffffffffffffffffffffffffffffffffffff1673ffffffffffffffffffffffffffffffffffffffff16815260200191505060405180910390f35b6104b1610fb4565b6040518082815260200191505060405180910390f35b6104f3600480360360208110156104dd57600080fd5b8101908080359060200190929190505050611017565b6040518085815260200180602001848152602001838152602001828103825285818151815260200191508051906020019080838360005b8381101561054557808201518184015260208101905061052a565b50505050905090810190601f1680156105725780820380516001836020036101000a031916815260200191505b509550505050505060405180910390f35b6105af6004803603602081101561059957600080fd5b810190808035906020019092919050505061117d565b604051808681526020018060200180602001858152602001848152602001838103835287818151815260200191508051906020019080838360005b838110156106055780820151818401526020810190506105ea565b50505050905090810190601f1680156106325780820380516001836020036101000a031916815260200191505b50838103825286818151815260200191508051906020019080838360005b8381101561066b578082015181840152602081019050610650565b50505050905090810190601f1680156106985780820380516001836020036101000a031916815260200191505b5097505050505050505060405180910390f35b60606000809054906101000a900473ffffffffffffffffffffffffffffffffffffffff1673ffffffffffffffffffffffffffffffffffffffff163373ffffffffffffffffffffffffffffffffffffffff161461070657600080fd5b600a5484148015610718575082600b54145b8015610728575062278d00420382105b156107e2577ff7ba8039872d4b64632e785b840bcd2c846b561d87d4c81f58877d2796f5df9b84846040518083815260200182815260200180602001828103825260088152602001807f4163636570746564000000000000000000000000000000000000000000000000815250602001935050505060405180910390a16040518060400160405280600881526020017f41636365707465640000000000000000000000000000000000000000000000008152509050610893565b7ff7ba8039872d4b64632e785b840bcd2c846b561d87d4c81f58877d2796f5df9b84846040518083815260200182815260200180602001828103825260088152602001807f52656a6563746564000000000000000000000000000000000000000000000000815250602001935050505060405180910390a16040518060400160405280600881526020017f52656a656374656400000000000000000000000000000000000000000000000081525090505b9392505050565b6000809054906101000a900473ffffffffffffffffffffffffffffffffffffffff1673ffffffffffffffffffffffffffffffffffffffff163373ffffffffffffffffffffffffffffffffffffffff16146108f357600080fd5b600160055401600581905550846001600060055481526020019081526020016000206000018190555083600160006005548152602001908152602001600020600101908051906020019061094892919061139a565b5082600160006005548152602001908152602001600020600201908051906020019061097592919061139a565b508160016000600554815260200190815260200160002060030181905550426001600060055481526020019081526020016000206005018190555080600160006005548152602001908152602001600020600401819055507f5cd3ff8e343025d632554e6bf873ce721e2470f3e1bb333e0dcc475ef489be7a85856040518083815260200180602001828103825283818151815260200191508051906020019080838360005b83811015610a36578082015181840152602081019050610a1b565b50505050905090810190601f168015610a635780820380516001836020036101000a031916815260200191505b50935050505060405180910390a15050505050565b6000809054906101000a900473ffffffffffffffffffffffffffffffffffffffff1673ffffffffffffffffffffffffffffffffffffffff163373ffffffffffffffffffffffffffffffffffffffff1614610ad157600080fd5b6001600654016006819055508260026000600654815260200190815260200160002060000181905550816002600060065481526020019081526020016000206001019080519060200190610b2692919061139a565b50806002600060065481526020019081526020016000206002018190555042600260006006548152602001908152602001600020600301819055507f9d56f4430053fe84cc6c525ad1201ace742febf3ecc5ea8bc0c189cbc09e123b83836040518083815260200180602001828103825283818151815260200191508051906020019080838360005b83811015610bca578082015181840152602081019050610baf565b50505050905090810190601f168015610bf75780820380516001836020036101000a031916815260200191505b50935050505060405180910390a1505050565b60008060009054906101000a900473ffffffffffffffffffffffffffffffffffffffff1673ffffffffffffffffffffffffffffffffffffffff163373ffffffffffffffffffffffffffffffffffffffff1614610c6557600080fd5b600554905090565b60008060009054906101000a900473ffffffffffffffffffffffffffffffffffffffff1673ffffffffffffffffffffffffffffffffffffffff163373ffffffffffffffffffffffffffffffffffffffff1614610cc857600080fd5b6001600854016008819055506000600190505b600554811015610d77578360016000838152602001908152602001600020600401541415610d6a576001600082815260200190815260200160002060040154600460006008548152602001908152602001600020600001819055506001600082815260200190815260200160002060030154600460006008548152602001908152602001600020600101819055505b8080600101915050610cdb565b506000600190505b600554811015610dd45760046000828152602001908152602001600020600101546009541015610dc75760046000828152602001908152602001600020600101546009819055505b8080600101915050610d7f565b50600160075401600781905550846003600060075481526020019081526020016000206000018190555083600360006007548152602001908152602001600020600101819055508260036000600754815260200190815260200160002060020181905550426003600060075481526020019081526020016000206003018190555081600360006007548152602001908152602001600020600401819055506009546003600060075481526020019081526020016000206005018190555082600a8190555083600b819055507ffe89b83fee13b689659ea86930ac2a8d7813de86b42198d5ae4461712a4f8c7485858560405180848152602001838152602001828152602001935050505060405180910390a16009549050949350505050565b6000809054906101000a900473ffffffffffffffffffffffffffffffffffffffff1673ffffffffffffffffffffffffffffffffffffffff163373ffffffffffffffffffffffffffffffffffffffff1614610f4c57600080fd5b806000806101000a81548173ffffffffffffffffffffffffffffffffffffffff021916908373ffffffffffffffffffffffffffffffffffffffff16021790555050565b6000809054906101000a900473ffffffffffffffffffffffffffffffffffffffff1681565b60008060009054906101000a900473ffffffffffffffffffffffffffffffffffffffff1673ffffffffffffffffffffffffffffffffffffffff163373ffffffffffffffffffffffffffffffffffffffff161461100f57600080fd5b600654905090565b600060606000806000809054906101000a900473ffffffffffffffffffffffffffffffffffffffff1673ffffffffffffffffffffffffffffffffffffffff163373ffffffffffffffffffffffffffffffffffffffff161461107757600080fd5b60026000868152602001908152602001600020600001546002600087815260200190815260200160002060010160026000888152602001908152602001600020600201546002600089815260200190815260200160002060030154828054600181600116156101000203166002900480601f0160208091040260200160405190810160405280929190818152602001828054600181600116156101000203166002900480156111675780601f1061113c57610100808354040283529160200191611167565b820191906000526020600020905b81548152906001019060200180831161114a57829003601f168201915b5050505050925093509350935093509193509193565b60006060806000806000809054906101000a900473ffffffffffffffffffffffffffffffffffffffff1673ffffffffffffffffffffffffffffffffffffffff163373ffffffffffffffffffffffffffffffffffffffff16146111de57600080fd5b60016000878152602001908152602001600020600001546001600088815260200190815260200160002060010160016000898152602001908152602001600020600201600160008a815260200190815260200160002060030154600160008b815260200190815260200160002060040154838054600181600116156101000203166002900480601f0160208091040260200160405190810160405280929190818152602001828054600181600116156101000203166002900480156112e45780601f106112b9576101008083540402835291602001916112e4565b820191906000526020600020905b8154815290600101906020018083116112c757829003601f168201915b50505050509350828054600181600116156101000203166002900480601f0160208091040260200160405190810160405280929190818152602001828054600181600116156101000203166002900480156113805780601f1061135557610100808354040283529160200191611380565b820191906000526020600020905b81548152906001019060200180831161136357829003601f168201915b505050505092509450945094509450945091939590929450565b828054600181600116156101000203166002900490600052602060002090601f016020900481019282601f106113db57805160ff1916838001178555611409565b82800160010185558215611409579182015b828111156114085782518255916020019190600101906113ed565b5b509050611416919061141a565b5090565b61143c91905b80821115611438576000816000905550600101611420565b5090565b9056fea165627a7a72305820f6efd4f4a1426fa110534d0d2e2888c2d6212ac0ec9e39f78141a2dbd49da4110029",
  "source": "pragma solidity >=0.4.21 <0.6.0;\n\nimport \"./owner.sol\";\n\ncontract Prada is Owner {\n\n    event productAdded(uint id, string name);\n    event supplierAdded(uint id, string name);\n    event orderPlaced(uint orderId, uint qty, uint productId);\n    event QCStatus(uint productId, uint qty, string status);\n\n    struct SupplierDetails {\n        uint id;\n        string name;\n        string location;\n        uint rank;\n        uint productId;\n        uint256 createdAt;\n    }\n\n    struct ProductDetails {\n        uint id;\n        string name;\n        uint256 quantity;\n        uint256 createdAt;\n        uint256 deliveryTime;\n    }\n\n    struct placeOrder {\n        uint id;\n        uint256 quantity;\n        uint productID;\n        uint256 createdAt;\n        uint256 deliveryTime;\n        uint supplierID;\n    }\n\n    struct filteredSupplier {\n        uint id;\n        uint rank;\n    }\n\n    mapping (uint => SupplierDetails) suppliers;\n    mapping (uint => ProductDetails) products;\n    mapping (uint => placeOrder) orders;\n    mapping (uint => filteredSupplier) filSupplier;\n\n    uint supplierCtr;\n    uint productCtr;\n    uint orderCount;\n    uint filSupplierCount;\n    uint topRankSupplier = filSupplier[0].rank;\n    uint orderedProduct;\n    uint orderedQty;\n\n    constructor() public {\n        owners = msg.sender;\n    }\n\n    //places an order on the network so that suppliers can grab the oppurtunity\n    function placeOrderToSuplier(uint _id, uint256 _quantity, uint _productID, uint256 _deliveryTime) public onlyOwner returns (uint supplier) {\n        filSupplierCount = filSupplierCount + 1;\n        for (uint i = 1; i < supplierCtr; i++) {\n            if (suppliers[i].productId == _productID) {\n                filSupplier[filSupplierCount].id = suppliers[i].productId;\n                filSupplier[filSupplierCount].rank = suppliers[i].rank;\n            }\n        }\n\n        for (uint p = 1; p < supplierCtr; p++) {\n            if (topRankSupplier < filSupplier[p].rank) {\n                topRankSupplier = filSupplier[p].rank;\n            }\n        }\n\n        orderCount = orderCount + 1;\n        orders[orderCount].id = _id;\n        orders[orderCount].quantity = _quantity;\n        orders[orderCount].productID = _productID;\n        orders[orderCount].createdAt = now;\n        orders[orderCount].deliveryTime = _deliveryTime;\n        orders[orderCount].supplierID = topRankSupplier;\n        orderedProduct = _productID;\n        orderedQty = _quantity;\n\n        emit orderPlaced(_id, _quantity, _productID);\n\n        return topRankSupplier;\n    }\n\n    function checkForQC(uint _productId, uint _qty, uint _dobmanf) public onlyOwner returns(string memory status) {\n        if (_productId == orderedProduct && orderedQty == _qty && (_dobmanf < now - 30 days)) {\n            //to be implemeted based on the history of the supplier for the products delivered in the past\n            emit QCStatus(_productId, _qty, \"Accepted\");\n            return \"Accepted\";\n        } else {\n            emit QCStatus(_productId, _qty, \"Rejected\");\n            return \"Rejected\";\n        }\n    }\n\n    function addSupplier(uint256 _id, string memory _name, string memory _loc, uint _rank, uint _productId) public onlyOwner {\n        supplierCtr = supplierCtr + 1;\n        suppliers[supplierCtr].id = _id;\n        suppliers[supplierCtr].name = _name;\n        suppliers[supplierCtr].location = _loc;\n        suppliers[supplierCtr].rank = _rank;\n        suppliers[supplierCtr].createdAt = now;\n        suppliers[supplierCtr].productId = _productId;\n        emit supplierAdded(_id, _name);\n    }\n\n    function totalSupplierCount() public view onlyOwner returns(uint) {\n        return supplierCtr;\n    }\n\n    function getSupplier(uint256 _id) public view onlyOwner returns(uint, string memory, string memory, uint, uint) {\n        return (suppliers[_id].id, suppliers[_id].name, suppliers[_id].location, suppliers[_id].rank, suppliers[_id].productId);\n    }\n\n    function addProduct(uint256 _id, string memory _name, uint256 _qty) public onlyOwner {\n        productCtr = productCtr + 1;\n        products[productCtr].id = _id;\n        products[productCtr].name = _name;\n        products[productCtr].quantity = _qty;\n        products[productCtr].createdAt = now;\n        emit productAdded(_id, _name);\n    }\n\n    function totalProductCount() public view onlyOwner returns(uint) {\n        return productCtr;\n    }\n\n    function getProduct(uint index) public view onlyOwner returns(uint, string memory, uint256, uint256) {\n        return (products[index].id, products[index].name, products[index].quantity, products[index].createdAt);\n    }\n}\n",
  "sourcePath": "/Users/devil/Desktop/iiih/contracts/prada.sol",
  "compiler": {
    "name": "solc",
    "version": "0.5.8+commit.23d335f2.Emscripten.clang"
  },
  "schemaVersion": "3.0.15",
  "updatedAt": "2019-09-06T12:36:13.643Z",
  "devdoc": {
    "methods": {}
  },
  "userdoc": {
    "methods": {}
  }
}